{
  "contractName": "CloudBank",
  "abi": [
    {
      "inputs": [
        {
          "internalType": "contract CloudCoin",
          "name": "_cc",
          "type": "address"
        },
        {
          "internalType": "contract LiteCloudCoin",
          "name": "_lcc",
          "type": "address"
        }
      ],
      "stateMutability": "nonpayable",
      "type": "constructor"
    },
    {
      "anonymous": false,
      "inputs": [
        {
          "indexed": true,
          "internalType": "address",
          "name": "_from",
          "type": "address"
        },
        {
          "indexed": false,
          "internalType": "uint256",
          "name": "_value",
          "type": "uint256"
        }
      ],
      "name": "Staking",
      "type": "event"
    },
    {
      "anonymous": false,
      "inputs": [
        {
          "indexed": true,
          "internalType": "address",
          "name": "_to",
          "type": "address"
        },
        {
          "indexed": false,
          "internalType": "uint256",
          "name": "_value",
          "type": "uint256"
        }
      ],
      "name": "Unstaking",
      "type": "event"
    },
    {
      "inputs": [],
      "name": "cloudcoin",
      "outputs": [
        {
          "internalType": "contract CloudCoin",
          "name": "",
          "type": "address"
        }
      ],
      "stateMutability": "view",
      "type": "function",
      "constant": true
    },
    {
      "inputs": [
        {
          "internalType": "address",
          "name": "",
          "type": "address"
        }
      ],
      "name": "hasStaked",
      "outputs": [
        {
          "internalType": "bool",
          "name": "",
          "type": "bool"
        }
      ],
      "stateMutability": "view",
      "type": "function",
      "constant": true
    },
    {
      "inputs": [
        {
          "internalType": "address",
          "name": "",
          "type": "address"
        }
      ],
      "name": "isStaking",
      "outputs": [
        {
          "internalType": "bool",
          "name": "",
          "type": "bool"
        }
      ],
      "stateMutability": "view",
      "type": "function",
      "constant": true
    },
    {
      "inputs": [],
      "name": "litecloudcoin",
      "outputs": [
        {
          "internalType": "contract LiteCloudCoin",
          "name": "",
          "type": "address"
        }
      ],
      "stateMutability": "view",
      "type": "function",
      "constant": true
    },
    {
      "inputs": [],
      "name": "name",
      "outputs": [
        {
          "internalType": "string",
          "name": "",
          "type": "string"
        }
      ],
      "stateMutability": "view",
      "type": "function",
      "constant": true
    },
    {
      "inputs": [],
      "name": "owner",
      "outputs": [
        {
          "internalType": "address",
          "name": "",
          "type": "address"
        }
      ],
      "stateMutability": "view",
      "type": "function",
      "constant": true
    },
    {
      "inputs": [
        {
          "internalType": "uint256",
          "name": "",
          "type": "uint256"
        }
      ],
      "name": "stakers",
      "outputs": [
        {
          "internalType": "address",
          "name": "",
          "type": "address"
        }
      ],
      "stateMutability": "view",
      "type": "function",
      "constant": true
    },
    {
      "inputs": [
        {
          "internalType": "address",
          "name": "",
          "type": "address"
        }
      ],
      "name": "stakingBalance",
      "outputs": [
        {
          "internalType": "uint256",
          "name": "",
          "type": "uint256"
        }
      ],
      "stateMutability": "view",
      "type": "function",
      "constant": true
    },
    {
      "inputs": [
        {
          "internalType": "uint256",
          "name": "_amount",
          "type": "uint256"
        }
      ],
      "name": "depositTokens",
      "outputs": [],
      "stateMutability": "nonpayable",
      "type": "function"
    },
    {
      "inputs": [],
      "name": "issueTokens",
      "outputs": [],
      "stateMutability": "nonpayable",
      "type": "function"
    },
    {
      "inputs": [],
      "name": "unstakeTokens",
      "outputs": [],
      "stateMutability": "nonpayable",
      "type": "function"
    }
  ],
  "bytecode": "0x60806040526040518060400160405280600a81526020017f436c6f75642042616e6b00000000000000000000000000000000000000000000815250600090805190602001906200005192919062000150565b503480156200005f57600080fd5b50604051620015e9380380620015e98339818101604052810190620000859190620002c3565b81600260006101000a81548173ffffffffffffffffffffffffffffffffffffffff021916908373ffffffffffffffffffffffffffffffffffffffff16021790555080600360006101000a81548173ffffffffffffffffffffffffffffffffffffffff021916908373ffffffffffffffffffffffffffffffffffffffff16021790555033600160006101000a81548173ffffffffffffffffffffffffffffffffffffffff021916908373ffffffffffffffffffffffffffffffffffffffff16021790555050506200036e565b8280546200015e9062000339565b90600052602060002090601f016020900481019282620001825760008555620001ce565b82601f106200019d57805160ff1916838001178555620001ce565b82800160010185558215620001ce579182015b82811115620001cd578251825591602001919060010190620001b0565b5b509050620001dd9190620001e1565b5090565b5b80821115620001fc576000816000905550600101620001e2565b5090565b600080fd5b600073ffffffffffffffffffffffffffffffffffffffff82169050919050565b6000620002328262000205565b9050919050565b6000620002468262000225565b9050919050565b620002588162000239565b81146200026457600080fd5b50565b60008151905062000278816200024d565b92915050565b60006200028b8262000225565b9050919050565b6200029d816200027e565b8114620002a957600080fd5b50565b600081519050620002bd8162000292565b92915050565b60008060408385031215620002dd57620002dc62000200565b5b6000620002ed8582860162000267565b92505060206200030085828601620002ac565b9150509250929050565b7f4e487b7100000000000000000000000000000000000000000000000000000000600052602260045260246000fd5b600060028204905060018216806200035257607f821691505b6020821081036200036857620003676200030a565b5b50919050565b61126b806200037e6000396000f3fe608060405234801561001057600080fd5b50600436106100a95760003560e01c806394b430481161007157806394b430481461015457806397b6e18714610172578063a5ce413b14610190578063c93c8f341461019a578063dd49756e146101ca578063fd5e6dd1146101e6576100a9565b806306fdde03146100ae57806345bc78ab146100cc57806360ab5852146100fc5780636f49712b146101065780638da5cb5b14610136575b600080fd5b6100b6610216565b6040516100c39190610c01565b60405180910390f35b6100e660048036038101906100e19190610c86565b6102a4565b6040516100f39190610ccc565b60405180910390f35b6101046102bc565b005b610120600480360381019061011b9190610c86565b6104b2565b60405161012d9190610d02565b60405180910390f35b61013e6104d2565b60405161014b9190610d2c565b60405180910390f35b61015c6104f8565b6040516101699190610da6565b60405180910390f35b61017a61051e565b6040516101879190610de2565b60405180910390f35b610198610544565b005b6101b460048036038101906101af9190610c86565b6107bd565b6040516101c19190610d02565b60405180910390f35b6101e460048036038101906101df9190610e29565b6107dd565b005b61020060048036038101906101fb9190610e29565b610b29565b60405161020d9190610d2c565b60405180910390f35b6000805461022390610e85565b80601f016020809104026020016040519081016040528092919081815260200182805461024f90610e85565b801561029c5780601f106102715761010080835404028352916020019161029c565b820191906000526020600020905b81548152906001019060200180831161027f57829003601f168201915b505050505081565b60056020528060005260406000206000915090505481565b600160009054906101000a900473ffffffffffffffffffffffffffffffffffffffff1673ffffffffffffffffffffffffffffffffffffffff163373ffffffffffffffffffffffffffffffffffffffff161461034c576040517f08c379a000000000000000000000000000000000000000000000000000000000815260040161034390610f02565b60405180910390fd5b60005b6004805490508110156104af5760006004828154811061037257610371610f22565b5b9060005260206000200160009054906101000a900473ffffffffffffffffffffffffffffffffffffffff16905060006009600560008473ffffffffffffffffffffffffffffffffffffffff1673ffffffffffffffffffffffffffffffffffffffff168152602001908152602001600020546103ed9190610faf565b9050600081111561049a57600360009054906101000a900473ffffffffffffffffffffffffffffffffffffffff1673ffffffffffffffffffffffffffffffffffffffff1663a9059cbb83836040518363ffffffff1660e01b8152600401610455929190610fe0565b6020604051808303816000875af1158015610474573d6000803e3d6000fd5b505050506040513d601f19601f820116820180604052508101906104989190611035565b505b505080806104a790611062565b91505061034f565b50565b60076020528060005260406000206000915054906101000a900460ff1681565b600160009054906101000a900473ffffffffffffffffffffffffffffffffffffffff1681565b600260009054906101000a900473ffffffffffffffffffffffffffffffffffffffff1681565b600360009054906101000a900473ffffffffffffffffffffffffffffffffffffffff1681565b6000600560003373ffffffffffffffffffffffffffffffffffffffff1673ffffffffffffffffffffffffffffffffffffffff168152602001908152602001600020549050600081116105cb576040517f08c379a00000000000000000000000000000000000000000000000000000000081526004016105c29061111c565b60405180910390fd5b600260009054906101000a900473ffffffffffffffffffffffffffffffffffffffff1673ffffffffffffffffffffffffffffffffffffffff166323b872dd600160009054906101000a900473ffffffffffffffffffffffffffffffffffffffff1633846040518463ffffffff1660e01b815260040161064c9392919061113c565b6020604051808303816000875af115801561066b573d6000803e3d6000fd5b505050506040513d601f19601f8201168201806040525081019061068f9190611035565b506000600560003373ffffffffffffffffffffffffffffffffffffffff1673ffffffffffffffffffffffffffffffffffffffff168152602001908152602001600020819055506000600760003373ffffffffffffffffffffffffffffffffffffffff1673ffffffffffffffffffffffffffffffffffffffff16815260200190815260200160002060006101000a81548160ff0219169083151502179055503373ffffffffffffffffffffffffffffffffffffffff167ff2619dcba9802bb8ec071016f659320c48304701ba220f0420bed16f87139a66600560003373ffffffffffffffffffffffffffffffffffffffff1673ffffffffffffffffffffffffffffffffffffffff168152602001908152602001600020546040516107b29190610ccc565b60405180910390a250565b60066020528060005260406000206000915054906101000a900460ff1681565b60008111610820576040517f08c379a0000000000000000000000000000000000000000000000000000000008152600401610817906111bf565b60405180910390fd5b600260009054906101000a900473ffffffffffffffffffffffffffffffffffffffff1673ffffffffffffffffffffffffffffffffffffffff166323b872dd33600160009054906101000a900473ffffffffffffffffffffffffffffffffffffffff16846040518463ffffffff1660e01b81526004016108a19392919061113c565b6020604051808303816000875af11580156108c0573d6000803e3d6000fd5b505050506040513d601f19601f820116820180604052508101906108e49190611035565b5080600560003373ffffffffffffffffffffffffffffffffffffffff1673ffffffffffffffffffffffffffffffffffffffff1681526020019081526020016000205461093091906111df565b600560003373ffffffffffffffffffffffffffffffffffffffff1673ffffffffffffffffffffffffffffffffffffffff16815260200190815260200160002081905550600660003373ffffffffffffffffffffffffffffffffffffffff1673ffffffffffffffffffffffffffffffffffffffff16815260200190815260200160002060009054906101000a900460ff16610a28576004339080600181540180825580915050600190039060005260206000200160009091909190916101000a81548173ffffffffffffffffffffffffffffffffffffffff021916908373ffffffffffffffffffffffffffffffffffffffff1602179055505b6001600760003373ffffffffffffffffffffffffffffffffffffffff1673ffffffffffffffffffffffffffffffffffffffff16815260200190815260200160002060006101000a81548160ff0219169083151502179055506001600660003373ffffffffffffffffffffffffffffffffffffffff1673ffffffffffffffffffffffffffffffffffffffff16815260200190815260200160002060006101000a81548160ff0219169083151502179055503373ffffffffffffffffffffffffffffffffffffffff167fb831f69f1cebc12b23cd864ce5bfea2669d01956050a0147d71d418074559c2182604051610b1e9190610ccc565b60405180910390a250565b60048181548110610b3957600080fd5b906000526020600020016000915054906101000a900473ffffffffffffffffffffffffffffffffffffffff1681565b600081519050919050565b600082825260208201905092915050565b60005b83811015610ba2578082015181840152602081019050610b87565b83811115610bb1576000848401525b50505050565b6000601f19601f8301169050919050565b6000610bd382610b68565b610bdd8185610b73565b9350610bed818560208601610b84565b610bf681610bb7565b840191505092915050565b60006020820190508181036000830152610c1b8184610bc8565b905092915050565b600080fd5b600073ffffffffffffffffffffffffffffffffffffffff82169050919050565b6000610c5382610c28565b9050919050565b610c6381610c48565b8114610c6e57600080fd5b50565b600081359050610c8081610c5a565b92915050565b600060208284031215610c9c57610c9b610c23565b5b6000610caa84828501610c71565b91505092915050565b6000819050919050565b610cc681610cb3565b82525050565b6000602082019050610ce16000830184610cbd565b92915050565b60008115159050919050565b610cfc81610ce7565b82525050565b6000602082019050610d176000830184610cf3565b92915050565b610d2681610c48565b82525050565b6000602082019050610d416000830184610d1d565b92915050565b6000819050919050565b6000610d6c610d67610d6284610c28565b610d47565b610c28565b9050919050565b6000610d7e82610d51565b9050919050565b6000610d9082610d73565b9050919050565b610da081610d85565b82525050565b6000602082019050610dbb6000830184610d97565b92915050565b6000610dcc82610d73565b9050919050565b610ddc81610dc1565b82525050565b6000602082019050610df76000830184610dd3565b92915050565b610e0681610cb3565b8114610e1157600080fd5b50565b600081359050610e2381610dfd565b92915050565b600060208284031215610e3f57610e3e610c23565b5b6000610e4d84828501610e14565b91505092915050565b7f4e487b7100000000000000000000000000000000000000000000000000000000600052602260045260246000fd5b60006002820490506001821680610e9d57607f821691505b602082108103610eb057610eaf610e56565b5b50919050565b7f63616c6c6572206d75737420626520746865206f776e65720000000000000000600082015250565b6000610eec601883610b73565b9150610ef782610eb6565b602082019050919050565b60006020820190508181036000830152610f1b81610edf565b9050919050565b7f4e487b7100000000000000000000000000000000000000000000000000000000600052603260045260246000fd5b7f4e487b7100000000000000000000000000000000000000000000000000000000600052601260045260246000fd5b7f4e487b7100000000000000000000000000000000000000000000000000000000600052601160045260246000fd5b6000610fba82610cb3565b9150610fc583610cb3565b925082610fd557610fd4610f51565b5b828204905092915050565b6000604082019050610ff56000830185610d1d565b6110026020830184610cbd565b9392505050565b61101281610ce7565b811461101d57600080fd5b50565b60008151905061102f81611009565b92915050565b60006020828403121561104b5761104a610c23565b5b600061105984828501611020565b91505092915050565b600061106d82610cb3565b91507fffffffffffffffffffffffffffffffffffffffffffffffffffffffffffffffff820361109f5761109e610f80565b5b600182019050919050565b7f7374616b696e672062616c616e63652063616e6e6f74206265206c657373207460008201527f68616e207a65726f000000000000000000000000000000000000000000000000602082015250565b6000611106602883610b73565b9150611111826110aa565b604082019050919050565b60006020820190508181036000830152611135816110f9565b9050919050565b60006060820190506111516000830186610d1d565b61115e6020830185610d1d565b61116b6040830184610cbd565b949350505050565b7f416d6f756e74206e65656420746f206265203e20300000000000000000000000600082015250565b60006111a9601583610b73565b91506111b482611173565b602082019050919050565b600060208201905081810360008301526111d88161119c565b9050919050565b60006111ea82610cb3565b91506111f583610cb3565b9250827fffffffffffffffffffffffffffffffffffffffffffffffffffffffffffffffff0382111561122a57611229610f80565b5b82820190509291505056fea2646970667358221220abb2909dd69da7ca7699733a77f1969fab5dd4db05d02026237dd11808617cd164736f6c634300080e0033",
  "immutableReferences": {},
  "source": "// SPDX-License-Identifier: MIT\r\npragma solidity >=0.4.22 <0.9.0;\r\n\r\nimport \"./CloudCoin.sol\";\r\nimport \"./LiteCloudCoin.sol\";\r\n\r\ncontract CloudBank {\r\n    string public name = \"Cloud Bank\";\r\n    address public owner;\r\n    CloudCoin public cloudcoin;\r\n    LiteCloudCoin public litecloudcoin;\r\n\r\n    address[] public stakers;\r\n\r\n    mapping(address => uint256) public stakingBalance;\r\n    mapping(address => bool) public hasStaked;\r\n    mapping(address => bool) public isStaking;\r\n\r\n    event Staking(address indexed _from, uint256 _value);\r\n    event Unstaking(address indexed _to, uint256 _value);\r\n\r\n    constructor(CloudCoin _cc, LiteCloudCoin _lcc) {\r\n        cloudcoin = _cc;\r\n        litecloudcoin = _lcc;\r\n        owner = msg.sender;\r\n    }\r\n\r\n    function depositTokens(uint256 _amount) public {\r\n        // require(\r\n        //     cloudcoin.balanceOf(msg.sender) >= _amount,\r\n        //     \"Balance lower then amount to deposit\"\r\n        // );\r\n        require(_amount > 0, \"Amount need to be > 0\");\r\n        //Transfer Cloud Coin to this contract address for staking\r\n        cloudcoin.transferFrom(msg.sender, owner, _amount);\r\n        // Update staking balance\r\n        stakingBalance[msg.sender] = stakingBalance[msg.sender] + _amount;\r\n\r\n        if (!hasStaked[msg.sender]) {\r\n            stakers.push(msg.sender);\r\n        }\r\n\r\n        //Update Staking Balance\r\n\r\n        isStaking[msg.sender] = true;\r\n        hasStaked[msg.sender] = true;\r\n\r\n        emit Staking(msg.sender, _amount);\r\n    }\r\n\r\n    modifier onlyOwner() {\r\n        require(msg.sender == owner, \"caller must be the owner\");\r\n        _;\r\n    }\r\n\r\n    //issue token\r\n\r\n    function issueTokens() public onlyOwner {\r\n        for (uint256 i = 0; i < stakers.length; i++) {\r\n            address recipient = stakers[i];\r\n            uint256 balance = stakingBalance[recipient] / 9; // divide by 9 to create percentage incentive, needs review\r\n            if (balance > 0) {\r\n                litecloudcoin.transfer(recipient, balance);\r\n            }\r\n        }\r\n    }\r\n\r\n    //unstake tokens\r\n    function unstakeTokens() public {\r\n        uint256 balance = stakingBalance[msg.sender];\r\n        // require the amount to be greater than zero\r\n        require(balance > 0, \"staking balance cannot be less than zero\");\r\n\r\n        // transfer the tokens to the specified contract address from our bank\r\n        cloudcoin.transferFrom(owner, msg.sender, balance);\r\n        // cloudcoin.transfer(msg.sender, balance);\r\n\r\n        // reset staking balance\r\n        stakingBalance[msg.sender] = 0;\r\n\r\n        // Update Staking Status\r\n        isStaking[msg.sender] = false;\r\n\r\n        emit Unstaking(msg.sender, stakingBalance[msg.sender]);\r\n    }\r\n}\r\n",
  "sourcePath": "C:\\Projects\\dapp-udemy\\contracts\\CloudBank.sol",
  "compiler": {
    "name": "solc",
    "version": "0.8.14+commit.80d49f37.Emscripten.clang"
  },
  "schemaVersion": "3.4.7",
  "updatedAt": "2022-06-25T23:28:21.674Z",
  "networkType": "ethereum",
  "devdoc": {
    "kind": "dev",
    "methods": {},
    "version": 1
  },
  "userdoc": {
    "kind": "user",
    "methods": {},
    "version": 1
  }
}